{
  "address": "0x6F7ad1Bba31716668098AAa24a15e4e5065662e4",
  "abi": [
    {
      "inputs": [
        {
          "internalType": "address payable",
          "name": "diceGameAddress",
          "type": "address"
        }
      ],
      "stateMutability": "nonpayable",
      "type": "constructor"
    },
    {
      "inputs": [
        {
          "internalType": "address",
          "name": "owner",
          "type": "address"
        }
      ],
      "name": "OwnableInvalidOwner",
      "type": "error"
    },
    {
      "inputs": [
        {
          "internalType": "address",
          "name": "account",
          "type": "address"
        }
      ],
      "name": "OwnableUnauthorizedAccount",
      "type": "error"
    },
    {
      "anonymous": false,
      "inputs": [
        {
          "indexed": true,
          "internalType": "address",
          "name": "previousOwner",
          "type": "address"
        },
        {
          "indexed": true,
          "internalType": "address",
          "name": "newOwner",
          "type": "address"
        }
      ],
      "name": "OwnershipTransferred",
      "type": "event"
    },
    {
      "inputs": [],
      "name": "diceGame",
      "outputs": [
        {
          "internalType": "contract DiceGame",
          "name": "",
          "type": "address"
        }
      ],
      "stateMutability": "view",
      "type": "function"
    },
    {
      "inputs": [],
      "name": "owner",
      "outputs": [
        {
          "internalType": "address",
          "name": "",
          "type": "address"
        }
      ],
      "stateMutability": "view",
      "type": "function"
    },
    {
      "inputs": [],
      "name": "renounceOwnership",
      "outputs": [],
      "stateMutability": "nonpayable",
      "type": "function"
    },
    {
      "inputs": [],
      "name": "riggedRoll",
      "outputs": [],
      "stateMutability": "nonpayable",
      "type": "function"
    },
    {
      "inputs": [
        {
          "internalType": "address",
          "name": "newOwner",
          "type": "address"
        }
      ],
      "name": "transferOwnership",
      "outputs": [],
      "stateMutability": "nonpayable",
      "type": "function"
    },
    {
      "inputs": [
        {
          "internalType": "address",
          "name": "_addr",
          "type": "address"
        },
        {
          "internalType": "uint256",
          "name": "_amount",
          "type": "uint256"
        }
      ],
      "name": "withdraw",
      "outputs": [],
      "stateMutability": "nonpayable",
      "type": "function"
    },
    {
      "stateMutability": "payable",
      "type": "receive"
    }
  ],
  "transactionHash": "0x38bfcf5e41f56073edf16b9dbde30a15882e479904d7965ec166e0eadc54803c",
  "args": [
    "0xFeCe061F19c88c5221f357c0ffD88513c6bf9e01"
  ],
  "numDeployments": 1,
  "solcInputHash": "4f7c0345d51717aafab0f431b502e123",
  "bytecode": "0x608060405234801561001057600080fd5b5060405161080238038061080283398101604081905261002f916100d4565b338061005557604051631e4fbdf760e01b81526000600482015260240160405180910390fd5b61005e81610084565b50600180546001600160a01b0319166001600160a01b0392909216919091179055610104565b600080546001600160a01b038381166001600160a01b0319831681178455604051919092169283917f8be0079c531659141344cd1fd0a4f28419497f9722a3daafe3b4186f6b6457e09190a35050565b6000602082840312156100e657600080fd5b81516001600160a01b03811681146100fd57600080fd5b9392505050565b6106ef806101136000396000f3fe6080604052600436106100595760003560e01c80636b5e97f814610065578063715018a61461007c5780638da5cb5b146100915780638e288fd1146100c7578063f2fde38b146100e7578063f3fef3a31461010757600080fd5b3661006057005b600080fd5b34801561007157600080fd5b5061007a610127565b005b34801561008857600080fd5b5061007a61036e565b34801561009d57600080fd5b506000546001600160a01b03165b6040516001600160a01b03909116815260200160405180910390f35b3480156100d357600080fd5b506001546100ab906001600160a01b031681565b3480156100f357600080fd5b5061007a6101023660046105b6565b610382565b34801561011357600080fd5b5061007a6101223660046105d8565b6103c0565b66071afd498d00004710156101835760405162461bcd60e51b815260206004820152601f60248201527f436f6e7472616374206b686f6e67206475207469656e2064652063756f63210060448201526064015b60405180910390fd5b6000610190600143610602565b6001546040805163057ff68760e51b815290519240935060009284926001600160a01b031691829163affed0e0916004808201926020929091908290030181865afa1580156101e3573d6000803e3d6000fd5b505050506040513d601f19601f820116820180604052508101906102079190610629565b60405160200161023c9392919092835260609190911b6bffffffffffffffffffffffff19166020830152603482015260540190565b60408051601f19818403018152919052805160209091012090506000610263601083610642565b90506102a46040518060400160405280601781526020017f5448452050524544494354454420524f4c4c2049533a20000000000000000000815250826104af565b6005811161032157600160009054906101000a90046001600160a01b03166001600160a01b0316637d789dee66071afd498d00006040518263ffffffff1660e01b81526004016000604051808303818588803b15801561030357600080fd5b505af1158015610317573d6000803e3d6000fd5b5050505050505050565b60405162461bcd60e51b815260206004820152601760248201527f4b656f206e617920746875612c20687579206c656e6821000000000000000000604482015260640161017a565b505050565b6103766104f8565b6103806000610525565b565b61038a6104f8565b6001600160a01b0381166103b457604051631e4fbdf760e01b81526000600482015260240161017a565b6103bd81610525565b50565b6103c86104f8565b804710156104185760405162461bcd60e51b815260206004820152601c60248201527f4b686f6e67206475207469656e2074726f6e6720636f6e747261637400000000604482015260640161017a565b6000826001600160a01b03168260405160006040518083038185875af1925050503d8060008114610465576040519150601f19603f3d011682016040523d82523d6000602084013e61046a565b606091505b50509050806103695760405162461bcd60e51b8152602060048201526011602482015270527574207469656e20746861742062616960781b604482015260640161017a565b6104f482826040516024016104c5929190610664565b60408051601f198184030181529190526020810180516001600160e01b0316632d839cb360e21b179052610575565b5050565b6000546001600160a01b031633146103805760405163118cdaa760e01b815233600482015260240161017a565b600080546001600160a01b038381166001600160a01b0319831681178455604051919092169283917f8be0079c531659141344cd1fd0a4f28419497f9722a3daafe3b4186f6b6457e09190a35050565b6103bd8160006a636f6e736f6c652e6c6f679050600080835160208501845afa505050565b80356001600160a01b03811681146105b157600080fd5b919050565b6000602082840312156105c857600080fd5b6105d18261059a565b9392505050565b600080604083850312156105eb57600080fd5b6105f48361059a565b946020939093013593505050565b8181038181111561062357634e487b7160e01b600052601160045260246000fd5b92915050565b60006020828403121561063b57600080fd5b5051919050565b60008261065f57634e487b7160e01b600052601260045260246000fd5b500690565b604081526000835180604084015260005b818110156106925760208187018101516060868401015201610675565b506000606082850101526060601f19601f830116840101915050826020830152939250505056fea2646970667358221220713cacf695c6fd5545753a140933eb28bb40d452d2b2bb32b36e3bdaa3723c2264736f6c63430008140033",
  "devdoc": {
    "errors": {
      "OwnableInvalidOwner(address)": [
        {
          "details": "The owner is not a valid owner account. (eg. `address(0)`)"
        }
      ],
      "OwnableUnauthorizedAccount(address)": [
        {
          "details": "The caller account is not authorized to perform an operation."
        }
      ]
    },
    "kind": "dev",
    "methods": {
      "owner()": {
        "details": "Returns the address of the current owner."
      },
      "renounceOwnership()": {
        "details": "Leaves the contract without owner. It will not be possible to call `onlyOwner` functions. Can only be called by the current owner. NOTE: Renouncing ownership will leave the contract without an owner, thereby disabling any functionality that is only available to the owner."
      },
      "transferOwnership(address)": {
        "details": "Transfers ownership of the contract to a new account (`newOwner`). Can only be called by the current owner."
      }
    },
    "version": 1
  },
  "userdoc": {
    "kind": "user",
    "methods": {},
    "version": 1
  },
  "storageLayout": {
    "storage": [
      {
        "astId": 8,
        "contract": "contracts/RiggedRoll.sol:RiggedRoll",
        "label": "_owner",
        "offset": 0,
        "slot": "0",
        "type": "t_address"
      },
      {
        "astId": 351,
        "contract": "contracts/RiggedRoll.sol:RiggedRoll",
        "label": "diceGame",
        "offset": 0,
        "slot": "1",
        "type": "t_contract(DiceGame)341"
      }
    ],
    "types": {
      "t_address": {
        "encoding": "inplace",
        "label": "address",
        "numberOfBytes": "20"
      },
      "t_contract(DiceGame)341": {
        "encoding": "inplace",
        "label": "contract DiceGame",
        "numberOfBytes": "20"
      }
    }
  }
}