{
  "address": "0xAC05ebe04De454b65Be6c1Af821f0De5Ab4AC44C",
  "abi": [
    {
      "inputs": [
        {
          "internalType": "address",
          "name": "exampleExternalContractAddress",
          "type": "address"
        }
      ],
      "stateMutability": "nonpayable",
      "type": "constructor"
    },
    {
      "anonymous": false,
      "inputs": [
        {
          "indexed": true,
          "internalType": "address",
          "name": "sender",
          "type": "address"
        },
        {
          "indexed": false,
          "internalType": "uint256",
          "name": "amount",
          "type": "uint256"
        }
      ],
      "name": "Stake",
      "type": "event"
    },
    {
      "inputs": [
        {
          "internalType": "address",
          "name": "",
          "type": "address"
        }
      ],
      "name": "balances",
      "outputs": [
        {
          "internalType": "uint256",
          "name": "",
          "type": "uint256"
        }
      ],
      "stateMutability": "view",
      "type": "function"
    },
    {
      "inputs": [],
      "name": "deadline",
      "outputs": [
        {
          "internalType": "uint256",
          "name": "",
          "type": "uint256"
        }
      ],
      "stateMutability": "view",
      "type": "function"
    },
    {
      "inputs": [],
      "name": "exampleExternalContract",
      "outputs": [
        {
          "internalType": "contract ExampleExternalContract",
          "name": "",
          "type": "address"
        }
      ],
      "stateMutability": "view",
      "type": "function"
    },
    {
      "inputs": [],
      "name": "execute",
      "outputs": [],
      "stateMutability": "nonpayable",
      "type": "function"
    },
    {
      "inputs": [],
      "name": "openForWithdraw",
      "outputs": [
        {
          "internalType": "bool",
          "name": "",
          "type": "bool"
        }
      ],
      "stateMutability": "view",
      "type": "function"
    },
    {
      "inputs": [],
      "name": "stake",
      "outputs": [],
      "stateMutability": "payable",
      "type": "function"
    },
    {
      "inputs": [],
      "name": "threshold",
      "outputs": [
        {
          "internalType": "uint256",
          "name": "",
          "type": "uint256"
        }
      ],
      "stateMutability": "view",
      "type": "function"
    },
    {
      "inputs": [],
      "name": "timeLeft",
      "outputs": [
        {
          "internalType": "uint256",
          "name": "",
          "type": "uint256"
        }
      ],
      "stateMutability": "view",
      "type": "function"
    },
    {
      "inputs": [],
      "name": "withdraw",
      "outputs": [],
      "stateMutability": "nonpayable",
      "type": "function"
    },
    {
      "stateMutability": "payable",
      "type": "receive"
    }
  ],
  "transactionHash": "0xec27342d1c249d8af3b62c61a8994a5fa37ebc98fca45de68380eb2bd8217efc",
  "args": [
    "0x73b9B15817f9C60F6A648167bB0Aed06E51D40D4"
  ],
  "numDeployments": 1,
  "solcInputHash": "3e01db40cc1046a1542e4e6ab19a8fc0",
  "bytecode": "0x6080604052610011426203f48061006e565b6002556003805460ff1916905534801561002a57600080fd5b5060405161061738038061061783398101604081905261004991610095565b600080546001600160a01b0319166001600160a01b03929092169190911790556100c5565b8082018082111561008f57634e487b7160e01b600052601160045260246000fd5b92915050565b6000602082840312156100a757600080fd5b81516001600160a01b03811681146100be57600080fd5b9392505050565b610543806100d46000396000f3fe60806040526004361061008a5760003560e01c80633ccfd60b116100595780633ccfd60b1461011157806342cde4e81461012657806361461954146101425780639876a643146101575780639f75f2271461018157600080fd5b80631300a6d11461009e57806327e235e3146100c657806329dcb0cf146100f35780633a4b66f11461010957600080fd5b36610099576100976101b9565b005b600080fd5b3480156100aa57600080fd5b506100b3610214565b6040519081526020015b60405180910390f35b3480156100d257600080fd5b506100b36100e136600461049b565b60016020526000908152604090205481565b3480156100ff57600080fd5b506100b360025481565b6100976101b9565b34801561011d57600080fd5b50610097610238565b34801561013257600080fd5b506100b3670de0b6b3a764000081565b34801561014e57600080fd5b50610097610389565b34801561016357600080fd5b506003546101719060ff1681565b60405190151581526020016100bd565b34801561018d57600080fd5b506000546101a1906001600160a01b031681565b6040516001600160a01b0390911681526020016100bd565b33600090815260016020526040812080543492906101d89084906104e1565b909155505060405134815233907febedb8b3c678666e7f36970bc8f57abf6d8fa2e828c0da91ea5b75bf68ed101a9060200160405180910390a2565b600060025442106102255750600090565b4260025461023391906104fa565b905090565b60035460ff1661028f5760405162461bcd60e51b815260206004820152601860248201527f4b686f6e672064756f63207068657020727574207469656e000000000000000060448201526064015b60405180910390fd5b33600090815260016020526040902054806102ec5760405162461bcd60e51b815260206004820152601c60248201527f42616e206b686f6e6720676f70207469656e2c2073616f207275743f000000006044820152606401610286565b336000818152600160205260408082208290555190919083908381818185875af1925050503d806000811461033d576040519150601f19603f3d011682016040523d82523d6000602084013e610342565b606091505b50509050806103855760405162461bcd60e51b815260206004820152600f60248201526e2637b49031b43abcb2b7103a34b2b760891b6044820152606401610286565b5050565b6002544210156103cf5760405162461bcd60e51b8152602060048201526011602482015270436875612064656e20646561646c696e6560781b6044820152606401610286565b60035460ff16156104145760405162461bcd60e51b815260206004820152600f60248201526e4461206578656375746520726f692160881b6044820152606401610286565b670de0b6b3a7640000471061048c5760008054906101000a90046001600160a01b03166001600160a01b031663522e1177476040518263ffffffff1660e01b81526004016000604051808303818588803b15801561047157600080fd5b505af1158015610485573d6000803e3d6000fd5b5050505050565b6003805460ff19166001179055565b6000602082840312156104ad57600080fd5b81356001600160a01b03811681146104c457600080fd5b9392505050565b634e487b7160e01b600052601160045260246000fd5b808201808211156104f4576104f46104cb565b92915050565b818103818111156104f4576104f46104cb56fea2646970667358221220ec8c10a03741592e5b092a146e07afa5c5c964cb2e55210b765d7fe428a2911764736f6c63430008140033",
  "devdoc": {
    "kind": "dev",
    "methods": {},
    "version": 1
  },
  "userdoc": {
    "kind": "user",
    "methods": {},
    "version": 1
  },
  "storageLayout": {
    "storage": [
      {
        "astId": 19,
        "contract": "contracts/Staker.sol:Staker",
        "label": "exampleExternalContract",
        "offset": 0,
        "slot": "0",
        "type": "t_contract(ExampleExternalContract)12"
      },
      {
        "astId": 23,
        "contract": "contracts/Staker.sol:Staker",
        "label": "balances",
        "offset": 0,
        "slot": "1",
        "type": "t_mapping(t_address,t_uint256)"
      },
      {
        "astId": 32,
        "contract": "contracts/Staker.sol:Staker",
        "label": "deadline",
        "offset": 0,
        "slot": "2",
        "type": "t_uint256"
      },
      {
        "astId": 35,
        "contract": "contracts/Staker.sol:Staker",
        "label": "openForWithdraw",
        "offset": 0,
        "slot": "3",
        "type": "t_bool"
      }
    ],
    "types": {
      "t_address": {
        "encoding": "inplace",
        "label": "address",
        "numberOfBytes": "20"
      },
      "t_bool": {
        "encoding": "inplace",
        "label": "bool",
        "numberOfBytes": "1"
      },
      "t_contract(ExampleExternalContract)12": {
        "encoding": "inplace",
        "label": "contract ExampleExternalContract",
        "numberOfBytes": "20"
      },
      "t_mapping(t_address,t_uint256)": {
        "encoding": "mapping",
        "key": "t_address",
        "label": "mapping(address => uint256)",
        "numberOfBytes": "32",
        "value": "t_uint256"
      },
      "t_uint256": {
        "encoding": "inplace",
        "label": "uint256",
        "numberOfBytes": "32"
      }
    }
  }
}