{
  "address": "0x7fA4D9312F8f3D9c3ebFbE0b9a384B0D6bc15CDf",
  "abi": [
    {
      "inputs": [
        {
          "internalType": "address",
          "name": "tokenAddress",
          "type": "address"
        }
      ],
      "stateMutability": "nonpayable",
      "type": "constructor"
    },
    {
      "inputs": [
        {
          "internalType": "address",
          "name": "owner",
          "type": "address"
        }
      ],
      "name": "OwnableInvalidOwner",
      "type": "error"
    },
    {
      "inputs": [
        {
          "internalType": "address",
          "name": "account",
          "type": "address"
        }
      ],
      "name": "OwnableUnauthorizedAccount",
      "type": "error"
    },
    {
      "anonymous": false,
      "inputs": [
        {
          "indexed": false,
          "internalType": "address",
          "name": "buyer",
          "type": "address"
        },
        {
          "indexed": false,
          "internalType": "uint256",
          "name": "amountOfETH",
          "type": "uint256"
        },
        {
          "indexed": false,
          "internalType": "uint256",
          "name": "amountOfTokens",
          "type": "uint256"
        }
      ],
      "name": "BuyTokens",
      "type": "event"
    },
    {
      "anonymous": false,
      "inputs": [
        {
          "indexed": true,
          "internalType": "address",
          "name": "previousOwner",
          "type": "address"
        },
        {
          "indexed": true,
          "internalType": "address",
          "name": "newOwner",
          "type": "address"
        }
      ],
      "name": "OwnershipTransferred",
      "type": "event"
    },
    {
      "anonymous": false,
      "inputs": [
        {
          "indexed": false,
          "internalType": "address",
          "name": "seller",
          "type": "address"
        },
        {
          "indexed": false,
          "internalType": "uint256",
          "name": "amountOfTokens",
          "type": "uint256"
        },
        {
          "indexed": false,
          "internalType": "uint256",
          "name": "amountOfETH",
          "type": "uint256"
        }
      ],
      "name": "SellTokens",
      "type": "event"
    },
    {
      "inputs": [],
      "name": "buyTokens",
      "outputs": [],
      "stateMutability": "payable",
      "type": "function"
    },
    {
      "inputs": [],
      "name": "owner",
      "outputs": [
        {
          "internalType": "address",
          "name": "",
          "type": "address"
        }
      ],
      "stateMutability": "view",
      "type": "function"
    },
    {
      "inputs": [],
      "name": "renounceOwnership",
      "outputs": [],
      "stateMutability": "nonpayable",
      "type": "function"
    },
    {
      "inputs": [
        {
          "internalType": "uint256",
          "name": "_amount",
          "type": "uint256"
        }
      ],
      "name": "sellTokens",
      "outputs": [],
      "stateMutability": "nonpayable",
      "type": "function"
    },
    {
      "inputs": [],
      "name": "tokensPerEth",
      "outputs": [
        {
          "internalType": "uint256",
          "name": "",
          "type": "uint256"
        }
      ],
      "stateMutability": "view",
      "type": "function"
    },
    {
      "inputs": [
        {
          "internalType": "address",
          "name": "newOwner",
          "type": "address"
        }
      ],
      "name": "transferOwnership",
      "outputs": [],
      "stateMutability": "nonpayable",
      "type": "function"
    },
    {
      "inputs": [],
      "name": "withdraw",
      "outputs": [],
      "stateMutability": "nonpayable",
      "type": "function"
    },
    {
      "inputs": [],
      "name": "yourToken",
      "outputs": [
        {
          "internalType": "contract YourToken",
          "name": "",
          "type": "address"
        }
      ],
      "stateMutability": "view",
      "type": "function"
    }
  ],
  "transactionHash": "0x677249e67156803840742764dd28de01ade74b647341c464c056d599917add43",
  "args": [
    "0x5b3E7FcA8d05777D71b26C556697305aA6C8250b"
  ],
  "numDeployments": 1,
  "solcInputHash": "64794c53b2c65f5ef87515658825bc04",
  "bytecode": "0x608060405234801561001057600080fd5b5060405161095c38038061095c83398101604081905261002f916100d4565b338061005557604051631e4fbdf760e01b81526000600482015260240160405180910390fd5b61005e81610084565b50600180546001600160a01b0319166001600160a01b0392909216919091179055610104565b600080546001600160a01b038381166001600160a01b0319831681178455604051919092169283917f8be0079c531659141344cd1fd0a4f28419497f9722a3daafe3b4186f6b6457e09190a35050565b6000602082840312156100e657600080fd5b81516001600160a01b03811681146100fd57600080fd5b9392505050565b610849806101136000396000f3fe60806040526004361061007b5760003560e01c80638da5cb5b1161004e5780638da5cb5b14610109578063cbdd69b514610127578063d0febe4c1461014a578063f2fde38b1461015257600080fd5b80633ccfd60b146100805780636c11bcd314610097578063715018a6146100b75780637879e84b146100cc575b600080fd5b34801561008c57600080fd5b50610095610172565b005b3480156100a357600080fd5b506100956100b2366004610742565b610255565b3480156100c357600080fd5b506100956104ab565b3480156100d857600080fd5b506001546100ec906001600160a01b031681565b6040516001600160a01b0390911681526020015b60405180910390f35b34801561011557600080fd5b506000546001600160a01b03166100ec565b34801561013357600080fd5b5061013c606481565b604051908152602001610100565b6100956104bf565b34801561015e57600080fd5b5061009561016d36600461075b565b610687565b61017a6106c5565b47806101c55760405162461bcd60e51b81526020600482015260156024820152744d6179206b686f6e6720636f20646f6e67206e616f60581b60448201526064015b60405180910390fd5b604051600090339083908381818185875af1925050503d8060008114610207576040519150601f19603f3d011682016040523d82523d6000602084013e61020c565b606091505b50509050806102515760405162461bcd60e51b8152602060048201526011602482015270527574207469656e20746861742062616960781b60448201526064016101bc565b5050565b6000811161029c5760405162461bcd60e51b81526020600482015260146024820152730506861692062616e206e6869657520686f6e20360641b60448201526064016101bc565b60006102a960648361078b565b9050804710156102fb5760405162461bcd60e51b815260206004820152601b60248201527f4d6179206b686f6e672064752045544820646520746875206d7561000000000060448201526064016101bc565b6001546040516323b872dd60e01b8152336004820152306024820152604481018490526000916001600160a01b0316906323b872dd906064016020604051808303816000875af1158015610353573d6000803e3d6000fd5b505050506040513d601f19601f8201168201806040525081019061037791906107ad565b9050806103d85760405162461bcd60e51b815260206004820152602960248201527f4b686f6e6720746865206c617920546f6b656e2c2062616e20646120417070726044820152686f766520636875613f60b81b60648201526084016101bc565b604051600090339084908381818185875af1925050503d806000811461041a576040519150601f19603f3d011682016040523d82523d6000602084013e61041f565b606091505b50509050806104645760405162461bcd60e51b8152602060048201526011602482015270096d0dedcce40e8d0ca40e8e4c2408aa89607b1b60448201526064016101bc565b60408051338152602081018690529081018490527fa24838acd4af5195a2396965dae5abf54e84e8c19f5698bb966ae64e29994ee59060600160405180910390a150505050565b6104b36106c5565b6104bd60006106f2565b565b60006104cc6064346107cf565b6001546040516370a0823160e01b81523060048201529192506000916001600160a01b03909116906370a0823190602401602060405180830381865afa15801561051a573d6000803e3d6000fd5b505050506040513d601f19601f8201168201806040525081019061053e91906107fa565b9050818110156105885760405162461bcd60e51b815260206004820152601560248201527456656e646f722068657420546f6b656e20726f692160581b60448201526064016101bc565b60015460405163a9059cbb60e01b8152336004820152602481018490526000916001600160a01b03169063a9059cbb906044016020604051808303816000875af11580156105da573d6000803e3d6000fd5b505050506040513d601f19601f820116820180604052508101906105fe91906107ad565b9050806106425760405162461bcd60e51b81526020600482015260126024820152714769616f206469636820746861742062616960701b60448201526064016101bc565b604080513381523460208201529081018490527f0a37b72bb67eee30e09084cf386f8a17817c57f620c3ab95fb25d6a20356ec779060600160405180910390a1505050565b61068f6106c5565b6001600160a01b0381166106b957604051631e4fbdf760e01b8152600060048201526024016101bc565b6106c2816106f2565b50565b6000546001600160a01b031633146104bd5760405163118cdaa760e01b81523360048201526024016101bc565b600080546001600160a01b038381166001600160a01b0319831681178455604051919092169283917f8be0079c531659141344cd1fd0a4f28419497f9722a3daafe3b4186f6b6457e09190a35050565b60006020828403121561075457600080fd5b5035919050565b60006020828403121561076d57600080fd5b81356001600160a01b038116811461078457600080fd5b9392505050565b6000826107a857634e487b7160e01b600052601260045260246000fd5b500490565b6000602082840312156107bf57600080fd5b8151801515811461078457600080fd5b80820281158282048414176107f457634e487b7160e01b600052601160045260246000fd5b92915050565b60006020828403121561080c57600080fd5b505191905056fea26469706673582212206df12b963e19d357012b7865ab8ec87eb8f5ae9d5ecaac565a0285b84bff976864736f6c63430008140033",
  "devdoc": {
    "errors": {
      "OwnableInvalidOwner(address)": [
        {
          "details": "The owner is not a valid owner account. (eg. `address(0)`)"
        }
      ],
      "OwnableUnauthorizedAccount(address)": [
        {
          "details": "The caller account is not authorized to perform an operation."
        }
      ]
    },
    "kind": "dev",
    "methods": {
      "owner()": {
        "details": "Returns the address of the current owner."
      },
      "renounceOwnership()": {
        "details": "Leaves the contract without owner. It will not be possible to call `onlyOwner` functions. Can only be called by the current owner. NOTE: Renouncing ownership will leave the contract without an owner, thereby disabling any functionality that is only available to the owner."
      },
      "transferOwnership(address)": {
        "details": "Transfers ownership of the contract to a new account (`newOwner`). Can only be called by the current owner."
      }
    },
    "version": 1
  },
  "userdoc": {
    "kind": "user",
    "methods": {},
    "version": 1
  },
  "storageLayout": {
    "storage": [
      {
        "astId": 8,
        "contract": "contracts/Vendor.sol:Vendor",
        "label": "_owner",
        "offset": 0,
        "slot": "0",
        "type": "t_address"
      },
      {
        "astId": 943,
        "contract": "contracts/Vendor.sol:Vendor",
        "label": "yourToken",
        "offset": 0,
        "slot": "1",
        "type": "t_contract(YourToken)1160"
      }
    ],
    "types": {
      "t_address": {
        "encoding": "inplace",
        "label": "address",
        "numberOfBytes": "20"
      },
      "t_contract(YourToken)1160": {
        "encoding": "inplace",
        "label": "contract YourToken",
        "numberOfBytes": "20"
      }
    }
  }
}