{
  "address": "0xf882527440D222ae1DC3923EA9fb28d6bC1dAF56",
  "abi": [
    {
      "inputs": [
        {
          "internalType": "address",
          "name": "_oracle",
          "type": "address"
        },
        {
          "internalType": "address",
          "name": "_myUSDAddress",
          "type": "address"
        },
        {
          "internalType": "address",
          "name": "_stakingAddress",
          "type": "address"
        },
        {
          "internalType": "address",
          "name": "_rateController",
          "type": "address"
        }
      ],
      "stateMutability": "nonpayable",
      "type": "constructor"
    },
    {
      "inputs": [],
      "name": "Engine__InsufficientCollateral",
      "type": "error"
    },
    {
      "inputs": [],
      "name": "Engine__InvalidAmount",
      "type": "error"
    },
    {
      "inputs": [],
      "name": "Engine__InvalidBorrowRate",
      "type": "error"
    },
    {
      "inputs": [],
      "name": "Engine__NotLiquidatable",
      "type": "error"
    },
    {
      "inputs": [],
      "name": "Engine__NotRateController",
      "type": "error"
    },
    {
      "inputs": [],
      "name": "Engine__TransferFailed",
      "type": "error"
    },
    {
      "inputs": [],
      "name": "Engine__UnsafePositionRatio",
      "type": "error"
    },
    {
      "inputs": [],
      "name": "MyUSD__InsufficientAllowance",
      "type": "error"
    },
    {
      "inputs": [],
      "name": "MyUSD__InsufficientBalance",
      "type": "error"
    },
    {
      "inputs": [
        {
          "internalType": "address",
          "name": "owner",
          "type": "address"
        }
      ],
      "name": "OwnableInvalidOwner",
      "type": "error"
    },
    {
      "inputs": [
        {
          "internalType": "address",
          "name": "account",
          "type": "address"
        }
      ],
      "name": "OwnableUnauthorizedAccount",
      "type": "error"
    },
    {
      "anonymous": false,
      "inputs": [
        {
          "indexed": false,
          "internalType": "uint256",
          "name": "newRate",
          "type": "uint256"
        }
      ],
      "name": "BorrowRateUpdated",
      "type": "event"
    },
    {
      "anonymous": false,
      "inputs": [
        {
          "indexed": true,
          "internalType": "address",
          "name": "user",
          "type": "address"
        },
        {
          "indexed": true,
          "internalType": "uint256",
          "name": "amount",
          "type": "uint256"
        },
        {
          "indexed": false,
          "internalType": "uint256",
          "name": "price",
          "type": "uint256"
        }
      ],
      "name": "CollateralAdded",
      "type": "event"
    },
    {
      "anonymous": false,
      "inputs": [
        {
          "indexed": true,
          "internalType": "address",
          "name": "withdrawer",
          "type": "address"
        },
        {
          "indexed": true,
          "internalType": "uint256",
          "name": "amount",
          "type": "uint256"
        },
        {
          "indexed": false,
          "internalType": "uint256",
          "name": "price",
          "type": "uint256"
        }
      ],
      "name": "CollateralWithdrawn",
      "type": "event"
    },
    {
      "anonymous": false,
      "inputs": [
        {
          "indexed": true,
          "internalType": "address",
          "name": "user",
          "type": "address"
        },
        {
          "indexed": false,
          "internalType": "uint256",
          "name": "amount",
          "type": "uint256"
        },
        {
          "indexed": false,
          "internalType": "uint256",
          "name": "shares",
          "type": "uint256"
        }
      ],
      "name": "DebtSharesBurned",
      "type": "event"
    },
    {
      "anonymous": false,
      "inputs": [
        {
          "indexed": true,
          "internalType": "address",
          "name": "user",
          "type": "address"
        },
        {
          "indexed": false,
          "internalType": "uint256",
          "name": "amount",
          "type": "uint256"
        },
        {
          "indexed": false,
          "internalType": "uint256",
          "name": "shares",
          "type": "uint256"
        }
      ],
      "name": "DebtSharesMinted",
      "type": "event"
    },
    {
      "anonymous": false,
      "inputs": [
        {
          "indexed": true,
          "internalType": "address",
          "name": "user",
          "type": "address"
        },
        {
          "indexed": true,
          "internalType": "address",
          "name": "liquidator",
          "type": "address"
        },
        {
          "indexed": false,
          "internalType": "uint256",
          "name": "amountForLiquidator",
          "type": "uint256"
        },
        {
          "indexed": false,
          "internalType": "uint256",
          "name": "liquidatedUserDebt",
          "type": "uint256"
        },
        {
          "indexed": false,
          "internalType": "uint256",
          "name": "price",
          "type": "uint256"
        }
      ],
      "name": "Liquidation",
      "type": "event"
    },
    {
      "anonymous": false,
      "inputs": [
        {
          "indexed": true,
          "internalType": "address",
          "name": "previousOwner",
          "type": "address"
        },
        {
          "indexed": true,
          "internalType": "address",
          "name": "newOwner",
          "type": "address"
        }
      ],
      "name": "OwnershipTransferred",
      "type": "event"
    },
    {
      "inputs": [],
      "name": "addCollateral",
      "outputs": [],
      "stateMutability": "payable",
      "type": "function"
    },
    {
      "inputs": [],
      "name": "borrowRate",
      "outputs": [
        {
          "internalType": "uint256",
          "name": "",
          "type": "uint256"
        }
      ],
      "stateMutability": "view",
      "type": "function"
    },
    {
      "inputs": [
        {
          "internalType": "address",
          "name": "user",
          "type": "address"
        }
      ],
      "name": "calculateCollateralValue",
      "outputs": [
        {
          "internalType": "uint256",
          "name": "",
          "type": "uint256"
        }
      ],
      "stateMutability": "view",
      "type": "function"
    },
    {
      "inputs": [
        {
          "internalType": "address",
          "name": "user",
          "type": "address"
        }
      ],
      "name": "calculatePositionRatio",
      "outputs": [
        {
          "internalType": "uint256",
          "name": "",
          "type": "uint256"
        }
      ],
      "stateMutability": "view",
      "type": "function"
    },
    {
      "inputs": [],
      "name": "debtExchangeRate",
      "outputs": [
        {
          "internalType": "uint256",
          "name": "",
          "type": "uint256"
        }
      ],
      "stateMutability": "view",
      "type": "function"
    },
    {
      "inputs": [
        {
          "internalType": "address",
          "name": "user",
          "type": "address"
        }
      ],
      "name": "getCurrentDebtValue",
      "outputs": [
        {
          "internalType": "uint256",
          "name": "",
          "type": "uint256"
        }
      ],
      "stateMutability": "view",
      "type": "function"
    },
    {
      "inputs": [
        {
          "internalType": "address",
          "name": "user",
          "type": "address"
        }
      ],
      "name": "isLiquidatable",
      "outputs": [
        {
          "internalType": "bool",
          "name": "",
          "type": "bool"
        }
      ],
      "stateMutability": "view",
      "type": "function"
    },
    {
      "inputs": [],
      "name": "lastUpdateTime",
      "outputs": [
        {
          "internalType": "uint256",
          "name": "",
          "type": "uint256"
        }
      ],
      "stateMutability": "view",
      "type": "function"
    },
    {
      "inputs": [
        {
          "internalType": "address",
          "name": "user",
          "type": "address"
        }
      ],
      "name": "liquidate",
      "outputs": [],
      "stateMutability": "nonpayable",
      "type": "function"
    },
    {
      "inputs": [
        {
          "internalType": "uint256",
          "name": "mintAmount",
          "type": "uint256"
        }
      ],
      "name": "mintMyUSD",
      "outputs": [],
      "stateMutability": "nonpayable",
      "type": "function"
    },
    {
      "inputs": [],
      "name": "owner",
      "outputs": [
        {
          "internalType": "address",
          "name": "",
          "type": "address"
        }
      ],
      "stateMutability": "view",
      "type": "function"
    },
    {
      "inputs": [],
      "name": "renounceOwnership",
      "outputs": [],
      "stateMutability": "nonpayable",
      "type": "function"
    },
    {
      "inputs": [
        {
          "internalType": "uint256",
          "name": "amount",
          "type": "uint256"
        }
      ],
      "name": "repayUpTo",
      "outputs": [],
      "stateMutability": "nonpayable",
      "type": "function"
    },
    {
      "inputs": [
        {
          "internalType": "address",
          "name": "",
          "type": "address"
        }
      ],
      "name": "s_userCollateral",
      "outputs": [
        {
          "internalType": "uint256",
          "name": "",
          "type": "uint256"
        }
      ],
      "stateMutability": "view",
      "type": "function"
    },
    {
      "inputs": [
        {
          "internalType": "address",
          "name": "",
          "type": "address"
        }
      ],
      "name": "s_userDebtShares",
      "outputs": [
        {
          "internalType": "uint256",
          "name": "",
          "type": "uint256"
        }
      ],
      "stateMutability": "view",
      "type": "function"
    },
    {
      "inputs": [
        {
          "internalType": "uint256",
          "name": "newRate",
          "type": "uint256"
        }
      ],
      "name": "setBorrowRate",
      "outputs": [],
      "stateMutability": "nonpayable",
      "type": "function"
    },
    {
      "inputs": [],
      "name": "totalDebtShares",
      "outputs": [
        {
          "internalType": "uint256",
          "name": "",
          "type": "uint256"
        }
      ],
      "stateMutability": "view",
      "type": "function"
    },
    {
      "inputs": [
        {
          "internalType": "address",
          "name": "newOwner",
          "type": "address"
        }
      ],
      "name": "transferOwnership",
      "outputs": [],
      "stateMutability": "nonpayable",
      "type": "function"
    },
    {
      "inputs": [
        {
          "internalType": "uint256",
          "name": "amount",
          "type": "uint256"
        }
      ],
      "name": "withdrawCollateral",
      "outputs": [],
      "stateMutability": "nonpayable",
      "type": "function"
    }
  ],
  "transactionHash": "0x07a0bc998678359b9eeda2edb0eb0e1a124b8c193efe4d4b886c4dad0ec67fba",
  "args": [
    "0xc7E1644c46546DB350fCd2a0e20eA4B90d07c753",
    "0xcd0B2bbf0F8b23b5973573c0705F84917787BC33",
    "0x7Ac9715FefcFCC36612D22A5cee001ab7C28cc95",
    "0xF2b5EDDE883f683cAF22462F4dfa0bE640ee79cb"
  ],
  "numDeployments": 1,
  "solcInputHash": "d6412120a62264ae092bf42f0cdf7799",
  "bytecode": "0x60806040523480156200001157600080fd5b506040516200149938038062001499833981016040819052620000349162000138565b33806200005b57604051631e4fbdf760e01b81526000600482015260240160405180910390fd5b6200006681620000cb565b50600280546001600160a01b039586166001600160a01b031991821617909155600180549486169482169490941790935560038054928516928416929092179091556004805491909316911617905542600855670de0b6b3a764000060075562000195565b600080546001600160a01b038381166001600160a01b0319831681178455604051919092169283917f8be0079c531659141344cd1fd0a4f28419497f9722a3daafe3b4186f6b6457e09190a35050565b80516001600160a01b03811681146200013357600080fd5b919050565b600080600080608085870312156200014f57600080fd5b6200015a856200011b565b93506200016a602086016200011b565b92506200017a604086016200011b565b91506200018a606086016200011b565b905092959194509250565b6112f480620001a56000396000f3fe6080604052600436106101145760003560e01c80638da5cb5b116100a0578063c914b43711610064578063c914b437146102d2578063d55b7cde146102e8578063d93f942a14610308578063dd3eaf0414610335578063f2fde38b1461035557600080fd5b80638da5cb5b146102495780639e81699914610271578063b5ed350d14610279578063bd00c24d1461028f578063c8f33c91146102bc57600080fd5b80632f865568116100e75780632f865568146101b25780636112fe2e146101d4578063715018a6146101f457806384d26f8a146102095780638d250a6f1461022957600080fd5b8063042e02cf146101195780630835e1451461014e5780631b859e411461017c5780632ed77d0814610192575b600080fd5b34801561012557600080fd5b506101396101343660046111c6565b610375565b60405190151581526020015b60405180910390f35b34801561015a57600080fd5b5061016e6101693660046111c6565b6103a9565b604051908152602001610145565b34801561018857600080fd5b5061016e60065481565b34801561019e57600080fd5b5061016e6101ad3660046111c6565b610467565b3480156101be57600080fd5b506101d26101cd3660046111c6565b6104a7565b005b3480156101e057600080fd5b506101d26101ef3660046111ef565b610882565b34801561020057600080fd5b506101d2610a02565b34801561021557600080fd5b506101d26102243660046111ef565b610a16565b34801561023557600080fd5b506101d26102443660046111ef565b610c5e565b34801561025557600080fd5b506000546040516001600160a01b039091168152602001610145565b6101d2610d84565b34801561028557600080fd5b5061016e60075481565b34801561029b57600080fd5b5061016e6102aa3660046111c6565b60096020526000908152604090205481565b3480156102c857600080fd5b5061016e60085481565b3480156102de57600080fd5b5061016e60055481565b3480156102f457600080fd5b5061016e6103033660046111c6565b610e80565b34801561031457600080fd5b5061016e6103233660046111c6565b600a6020526000908152604090205481565b34801561034157600080fd5b506101d26103503660046111ef565b610ef3565b34801561036157600080fd5b506101d26103703660046111c6565b610ff8565b60008061038183610467565b9050610396670de0b6b3a7640000609661121e565b6103a182606461121e565b109392505050565b6001600160a01b0381166000908152600960205260408120548082036103d25750600092915050565b6002546040805163aa13d0b560e01b815290516000926001600160a01b03169163aa13d0b59160048083019260209291908290030181865afa15801561041c573d6000803e3d6000fd5b505050506040513d601f19601f82011682018060405250810190610440919061123b565b9050670de0b6b3a7640000610455828461121e565b61045f9190611254565b949350505050565b60008061047383610e80565b905080600003610487575060001992915050565b6000610492846103a9565b905081610455670de0b6b3a76400008361121e565b6104af61103b565b6104b881610375565b6104d5576040516330b6c2c160e11b815260040160405180910390fd5b60006104e082610e80565b6001600160a01b038316600090815260096020526040812054919250610505846103a9565b6001546040516370a0823160e01b815233600482015291925084916001600160a01b03909116906370a0823190602401602060405180830381865afa158015610552573d6000803e3d6000fd5b505050506040513d601f19601f82011682018060405250810190610576919061123b565b1015610595576040516325154c9560e21b815260040160405180910390fd5b600154604051636eb1769f60e11b815233600482015230602482015284916001600160a01b03169063dd62ed3e90604401602060405180830381865afa1580156105e3573d6000803e3d6000fd5b505050506040513d601f19601f82011682018060405250810190610607919061123b565b1015610625576040516221fc5760e71b815260040160405180910390fd5b60015460405163079cc67960e41b8152336004820152602481018590526001600160a01b03909116906379cc679090604401600060405180830381600087803b15801561067157600080fd5b505af1158015610685573d6000803e3d6000fd5b5050506001600160a01b0385166000908152600a60205260408120546006805491935091906106b5908490611276565b90915550506001600160a01b0384166000908152600a60205260408120819055816106e0848661121e565b6106ea9190611254565b9050600060646106fb600a8461121e565b6107059190611254565b905060006107138284611289565b9050848111156107205750835b61072a8186611276565b6001600160a01b038816600090815260096020526040808220929092559051339083908381818185875af1925050503d8060008114610785576040519150601f19603f3d011682016040523d82523d6000602084013e61078a565b606091505b50509050806107ac576040516347a867b760e01b815260040160405180910390fd5b336001600160a01b0316886001600160a01b03167f5a821a618ddb1a1fd304234a69c9d7f20c129d122fcf35593d13a07192664307848a600260009054906101000a90046001600160a01b03166001600160a01b031663bf4b19906040518163ffffffff1660e01b8152600401602060405180830381865afa158015610836573d6000803e3d6000fd5b505050506040513d601f19601f8201168201806040525081019061085a919061123b565b6040805193845260208401929092529082015260600160405180910390a35050505050505050565b806000036108a3576040516375ec6b4760e01b815260040160405180910390fd5b336000908152600960205260409020548111156108d35760405163edee196d60e01b815260040160405180910390fd5b336000908152600960205260408120546108ee908390611276565b336000908152600960209081526040808320849055600a9091529020549091501561091c5761091c3361105c565b604051339083156108fc029084906000818181858888f19350505050158015610949573d6000803e3d6000fd5b5081336001600160a01b03167fdaed309a628faec6cab72194019e2a1a34e890ca9bf9be99788992dd54692819600260009054906101000a90046001600160a01b03166001600160a01b031663aa13d0b56040518163ffffffff1660e01b8152600401602060405180830381865afa1580156109c9573d6000803e3d6000fd5b505050506040513d601f19601f820116820180604052508101906109ed919061123b565b60405190815260200160405180910390a35050565b610a0a6110aa565b610a1460006110d7565b565b6000610a2182611127565b336000908152600a6020526040902054909150811115610a595750336000818152600a602052604090205490610a5690610e80565b91505b811580610acf57506001546040516370a0823160e01b815233600482015283916001600160a01b0316906370a0823190602401602060405180830381865afa158015610aa9573d6000803e3d6000fd5b505050506040513d601f19601f82011682018060405250810190610acd919061123b565b105b15610aed576040516325154c9560e21b815260040160405180910390fd5b600154604051636eb1769f60e11b815233600482015230602482015283916001600160a01b03169063dd62ed3e90604401602060405180830381865afa158015610b3b573d6000803e3d6000fd5b505050506040513d601f19601f82011682018060405250810190610b5f919061123b565b1015610b7d576040516221fc5760e71b815260040160405180910390fd5b336000908152600a602052604081208054839290610b9c908490611276565b925050819055508060066000828254610bb59190611276565b909155505060015460405163079cc67960e41b8152336004820152602481018490526001600160a01b03909116906379cc679090604401600060405180830381600087803b158015610c0657600080fd5b505af1158015610c1a573d6000803e3d6000fd5b505060408051858152602081018590523393507fb4f416a7e6af544346b169a93907ab63ba82db8c2ad267251b5c19c55580075c9250015b60405180910390a25050565b80600003610c7f576040516375ec6b4760e01b815260040160405180910390fd5b6000610c8a82611127565b336000908152600a6020526040812080549293508392909190610cae908490611289565b925050819055508060066000828254610cc79190611289565b90915550610cd690503361105c565b6001546040516308934a5f60e31b8152336004820152602481018490526001600160a01b039091169063449a52f8906044016020604051808303816000875af1158015610d27573d6000803e3d6000fd5b505050506040513d601f19601f82011682018060405250810190610d4b919061129c565b50604080518381526020810183905233917f53adc116a5b97aaef74196f7a7b2e5b7c4863414770ccac0b40d42fda70e32ae9101610c52565b34600003610da5576040516375ec6b4760e01b815260040160405180910390fd5b3360009081526009602052604081208054349290610dc4908490611289565b90915550506002546040805163aa13d0b560e01b815290516000926001600160a01b03169163aa13d0b59160048083019260209291908290030181865afa158015610e13573d6000803e3d6000fd5b505050506040513d601f19601f82011682018060405250810190610e37919061123b565b905034336001600160a01b03167f11f8990ac38271f23dea447d5728e9914fca7cea2edda43af6c43c415f8bc30b83604051610e7591815260200190565b60405180910390a350565b6001600160a01b0381166000908152600a60205260408120548103610ea757506000919050565b6000610eb1611147565b6001600160a01b0384166000908152600a6020526040902054909150670de0b6b3a764000090610ee290839061121e565b610eec9190611254565b9392505050565b6004546001600160a01b03163314610f1e57604051632e63a58160e21b815260040160405180910390fd5b600360009054906101000a90046001600160a01b03166001600160a01b0316636ecd067f6040518163ffffffff1660e01b8152600401602060405180830381865afa158015610f71573d6000803e3d6000fd5b505050506040513d601f19601f82011682018060405250810190610f95919061123b565b811015610fb557604051630acdfa5760e01b815260040160405180910390fd5b610fbd61103b565b60058190556040518181527f578adda73f5b431118629e4fc78f890d645ad2613a5260bddc23fa48065b940a9060200160405180910390a150565b6110006110aa565b6001600160a01b03811661102f57604051631e4fbdf760e01b8152600060048201526024015b60405180910390fd5b611038816110d7565b50565b60065460000361104b5742600855565b611053611147565b60075542600855565b600061106782610467565b905061107c670de0b6b3a7640000609661121e565b61108782606461121e565b10156110a65760405163251d13b760e21b815260040160405180910390fd5b5050565b6000546001600160a01b03163314610a145760405163118cdaa760e01b8152336004820152602401611026565b600080546001600160a01b038381166001600160a01b0319831681178455604051919092169283917f8be0079c531659141344cd1fd0a4f28419497f9722a3daafe3b4186f6b6457e09190a35050565b600080611132611147565b905080610ee2670de0b6b3a76400008561121e565b60006008546000148061115a5750600654155b15611166575060075490565b6000600854426111769190611276565b9050600061118a6301e1338061271061121e565b8260055460075461119b919061121e565b6111a5919061121e565b6111af9190611254565b9050806007546111bf9190611289565b9250505090565b6000602082840312156111d857600080fd5b81356001600160a01b0381168114610eec57600080fd5b60006020828403121561120157600080fd5b5035919050565b634e487b7160e01b600052601160045260246000fd5b808202811582820484141761123557611235611208565b92915050565b60006020828403121561124d57600080fd5b5051919050565b60008261127157634e487b7160e01b600052601260045260246000fd5b500490565b8181038181111561123557611235611208565b8082018082111561123557611235611208565b6000602082840312156112ae57600080fd5b81518015158114610eec57600080fdfea2646970667358221220e3023d216155eafadebb3c65cab2bdb66a823862ac11e275d90d37c1ab0b311564736f6c63430008140033",
  "devdoc": {
    "errors": {
      "OwnableInvalidOwner(address)": [
        {
          "details": "The owner is not a valid owner account. (eg. `address(0)`)"
        }
      ],
      "OwnableUnauthorizedAccount(address)": [
        {
          "details": "The caller account is not authorized to perform an operation."
        }
      ]
    },
    "kind": "dev",
    "methods": {
      "owner()": {
        "details": "Returns the address of the current owner."
      },
      "renounceOwnership()": {
        "details": "Leaves the contract without owner. It will not be possible to call `onlyOwner` functions. Can only be called by the current owner. NOTE: Renouncing ownership will leave the contract without an owner, thereby disabling any functionality that is only available to the owner."
      },
      "transferOwnership(address)": {
        "details": "Transfers ownership of the contract to a new account (`newOwner`). Can only be called by the current owner."
      }
    },
    "version": 1
  },
  "userdoc": {
    "kind": "user",
    "methods": {},
    "version": 1
  },
  "storageLayout": {
    "storage": [
      {
        "astId": 8,
        "contract": "contracts/MyUSDEngine.sol:MyUSDEngine",
        "label": "_owner",
        "offset": 0,
        "slot": "0",
        "type": "t_address"
      },
      {
        "astId": 1969,
        "contract": "contracts/MyUSDEngine.sol:MyUSDEngine",
        "label": "i_myUSD",
        "offset": 0,
        "slot": "1",
        "type": "t_contract(MyUSD)1932"
      },
      {
        "astId": 1972,
        "contract": "contracts/MyUSDEngine.sol:MyUSDEngine",
        "label": "i_oracle",
        "offset": 0,
        "slot": "2",
        "type": "t_contract(Oracle)3314"
      },
      {
        "astId": 1975,
        "contract": "contracts/MyUSDEngine.sol:MyUSDEngine",
        "label": "i_staking",
        "offset": 0,
        "slot": "3",
        "type": "t_contract(MyUSDStaking)3256"
      },
      {
        "astId": 1977,
        "contract": "contracts/MyUSDEngine.sol:MyUSDEngine",
        "label": "i_rateController",
        "offset": 0,
        "slot": "4",
        "type": "t_address"
      },
      {
        "astId": 1979,
        "contract": "contracts/MyUSDEngine.sol:MyUSDEngine",
        "label": "borrowRate",
        "offset": 0,
        "slot": "5",
        "type": "t_uint256"
      },
      {
        "astId": 1981,
        "contract": "contracts/MyUSDEngine.sol:MyUSDEngine",
        "label": "totalDebtShares",
        "offset": 0,
        "slot": "6",
        "type": "t_uint256"
      },
      {
        "astId": 1983,
        "contract": "contracts/MyUSDEngine.sol:MyUSDEngine",
        "label": "debtExchangeRate",
        "offset": 0,
        "slot": "7",
        "type": "t_uint256"
      },
      {
        "astId": 1985,
        "contract": "contracts/MyUSDEngine.sol:MyUSDEngine",
        "label": "lastUpdateTime",
        "offset": 0,
        "slot": "8",
        "type": "t_uint256"
      },
      {
        "astId": 1989,
        "contract": "contracts/MyUSDEngine.sol:MyUSDEngine",
        "label": "s_userCollateral",
        "offset": 0,
        "slot": "9",
        "type": "t_mapping(t_address,t_uint256)"
      },
      {
        "astId": 1993,
        "contract": "contracts/MyUSDEngine.sol:MyUSDEngine",
        "label": "s_userDebtShares",
        "offset": 0,
        "slot": "10",
        "type": "t_mapping(t_address,t_uint256)"
      }
    ],
    "types": {
      "t_address": {
        "encoding": "inplace",
        "label": "address",
        "numberOfBytes": "20"
      },
      "t_contract(MyUSD)1932": {
        "encoding": "inplace",
        "label": "contract MyUSD",
        "numberOfBytes": "20"
      },
      "t_contract(MyUSDStaking)3256": {
        "encoding": "inplace",
        "label": "contract MyUSDStaking",
        "numberOfBytes": "20"
      },
      "t_contract(Oracle)3314": {
        "encoding": "inplace",
        "label": "contract Oracle",
        "numberOfBytes": "20"
      },
      "t_mapping(t_address,t_uint256)": {
        "encoding": "mapping",
        "key": "t_address",
        "label": "mapping(address => uint256)",
        "numberOfBytes": "32",
        "value": "t_uint256"
      },
      "t_uint256": {
        "encoding": "inplace",
        "label": "uint256",
        "numberOfBytes": "32"
      }
    }
  }
}